{
  "_format": "hh-sol-artifact-1",
  "contractName": "EventManagement",
  "sourceName": "contracts/EventRegistration.sol",
  "abi": [
    {
      "inputs": [
        {
          "internalType": "address",
          "name": "_mintingNFTContract",
          "type": "address"
        }
      ],
      "stateMutability": "nonpayable",
      "type": "constructor"
    },
    {
      "anonymous": false,
      "inputs": [
        {
          "indexed": false,
          "internalType": "uint256",
          "name": "eventId",
          "type": "uint256"
        },
        {
          "indexed": true,
          "internalType": "address",
          "name": "creator",
          "type": "address"
        },
        {
          "indexed": false,
          "internalType": "string",
          "name": "name",
          "type": "string"
        }
      ],
      "name": "EventCreated",
      "type": "event"
    },
    {
      "anonymous": false,
      "inputs": [
        {
          "indexed": false,
          "internalType": "uint256",
          "name": "eventId",
          "type": "uint256"
        },
        {
          "indexed": true,
          "internalType": "address",
          "name": "user",
          "type": "address"
        }
      ],
      "name": "Registered",
      "type": "event"
    },
    {
      "inputs": [
        {
          "internalType": "uint256",
          "name": "eventId",
          "type": "uint256"
        }
      ],
      "name": "closeRegistration",
      "outputs": [],
      "stateMutability": "nonpayable",
      "type": "function"
    },
    {
      "inputs": [
        {
          "internalType": "string",
          "name": "name",
          "type": "string"
        },
        {
          "internalType": "string",
          "name": "description",
          "type": "string"
        },
        {
          "internalType": "uint256",
          "name": "maxParticipants",
          "type": "uint256"
        }
      ],
      "name": "createEvent",
      "outputs": [],
      "stateMutability": "nonpayable",
      "type": "function"
    },
    {
      "inputs": [],
      "name": "eventCounter",
      "outputs": [
        {
          "internalType": "uint256",
          "name": "",
          "type": "uint256"
        }
      ],
      "stateMutability": "view",
      "type": "function"
    },
    {
      "inputs": [
        {
          "internalType": "uint256",
          "name": "",
          "type": "uint256"
        }
      ],
      "name": "events",
      "outputs": [
        {
          "internalType": "uint256",
          "name": "eventId",
          "type": "uint256"
        },
        {
          "internalType": "address",
          "name": "creator",
          "type": "address"
        },
        {
          "internalType": "string",
          "name": "name",
          "type": "string"
        },
        {
          "internalType": "string",
          "name": "description",
          "type": "string"
        },
        {
          "internalType": "uint256",
          "name": "maxParticipants",
          "type": "uint256"
        },
        {
          "internalType": "uint256",
          "name": "registeredCount",
          "type": "uint256"
        },
        {
          "internalType": "bool",
          "name": "isRegistrationOpen",
          "type": "bool"
        }
      ],
      "stateMutability": "view",
      "type": "function"
    },
    {
      "inputs": [
        {
          "internalType": "uint256",
          "name": "eventId",
          "type": "uint256"
        }
      ],
      "name": "getEventDetails",
      "outputs": [
        {
          "internalType": "string",
          "name": "name",
          "type": "string"
        },
        {
          "internalType": "string",
          "name": "description",
          "type": "string"
        },
        {
          "internalType": "uint256",
          "name": "maxParticipants",
          "type": "uint256"
        },
        {
          "internalType": "uint256",
          "name": "registeredCount",
          "type": "uint256"
        },
        {
          "internalType": "bool",
          "name": "isRegistrationOpen",
          "type": "bool"
        }
      ],
      "stateMutability": "view",
      "type": "function"
    },
    {
      "inputs": [
        {
          "internalType": "uint256",
          "name": "eventId",
          "type": "uint256"
        },
        {
          "internalType": "address",
          "name": "user",
          "type": "address"
        }
      ],
      "name": "isUserRegistered",
      "outputs": [
        {
          "internalType": "bool",
          "name": "",
          "type": "bool"
        }
      ],
      "stateMutability": "view",
      "type": "function"
    },
    {
      "inputs": [],
      "name": "mintingNFTContract",
      "outputs": [
        {
          "internalType": "contract MintingNFT",
          "name": "",
          "type": "address"
        }
      ],
      "stateMutability": "view",
      "type": "function"
    },
    {
      "inputs": [
        {
          "internalType": "uint256",
          "name": "eventId",
          "type": "uint256"
        },
        {
          "internalType": "uint256",
          "name": "tokenId",
          "type": "uint256"
        }
      ],
      "name": "registerForEvent",
      "outputs": [],
      "stateMutability": "nonpayable",
      "type": "function"
    },
    {
      "inputs": [
        {
          "internalType": "uint256",
          "name": "eventId",
          "type": "uint256"
        },
        {
          "internalType": "string",
          "name": "newName",
          "type": "string"
        },
        {
          "internalType": "string",
          "name": "newDescription",
          "type": "string"
        }
      ],
      "name": "updateEventDetails",
      "outputs": [],
      "stateMutability": "nonpayable",
      "type": "function"
    }
  ],
  "bytecode": "0x60806040523480156200001157600080fd5b50604051620018eb380380620018eb8339818101604052810190620000379190620000e8565b806000806101000a81548173ffffffffffffffffffffffffffffffffffffffff021916908373ffffffffffffffffffffffffffffffffffffffff160217905550506200011a565b600080fd5b600073ffffffffffffffffffffffffffffffffffffffff82169050919050565b6000620000b08262000083565b9050919050565b620000c281620000a3565b8114620000ce57600080fd5b50565b600081519050620000e281620000b7565b92915050565b6000602082840312156200010157620001006200007e565b5b60006200011184828501620000d1565b91505092915050565b6117c1806200012a6000396000f3fe608060405234801561001057600080fd5b50600436106100935760003560e01c80635da0f851116100665780635da0f851146101385780635e54a1401461015457806397ab938d14610170578063d51599121461018c578063ec38d5a0146101aa57610093565b80630b7914301461009857806352c55db9146100ce5780635555fe17146100ec57806357f6979914610108575b600080fd5b6100b260048036038101906100ad9190610b79565b6101de565b6040516100c59796959493929190610ca1565b60405180910390f35b6100d661035d565b6040516100e39190610d1e565b60405180910390f35b61010660048036038101906101019190610e6e565b610363565b005b610122600480360381019061011d9190610f25565b610484565b60405161012f9190610f65565b60405180910390f35b610152600480360381019061014d9190610f80565b6104ef565b005b61016e60048036038101906101699190610b79565b6105e2565b005b61018a6004803603810190610185919061100b565b6106ba565b005b61019461099d565b6040516101a191906110aa565b60405180910390f35b6101c460048036038101906101bf9190610b79565b6109c1565b6040516101d59594939291906110c5565b60405180910390f35b60026020528060005260406000206000915090508060000154908060010160009054906101000a900473ffffffffffffffffffffffffffffffffffffffff169080600201805461022d90611155565b80601f016020809104026020016040519081016040528092919081815260200182805461025990611155565b80156102a65780601f1061027b576101008083540402835291602001916102a6565b820191906000526020600020905b81548152906001019060200180831161028957829003601f168201915b5050505050908060030180546102bb90611155565b80601f01602080910402602001604051908101604052809291908181526020018280546102e790611155565b80156103345780601f1061030957610100808354040283529160200191610334565b820191906000526020600020905b81548152906001019060200180831161031757829003601f168201915b5050505050908060040154908060050154908060060160009054906101000a900460ff16905087565b60015481565b60016000815480929190610376906111b5565b9190505550600060026000600154815260200190815260200160002090506001548160000181905550338160010160006101000a81548173ffffffffffffffffffffffffffffffffffffffff021916908373ffffffffffffffffffffffffffffffffffffffff160217905550838160020190816103f3919061139f565b5082816003019081610405919061139f565b5081816004018190555060018160060160006101000a81548160ff0219169083151502179055503373ffffffffffffffffffffffffffffffffffffffff167ffc695dea2478fb938a11068aeedddd7046a5fe655f136e30a325d353fe187a4560015486604051610476929190611471565b60405180910390a250505050565b60006002600084815260200190815260200160002060070160008373ffffffffffffffffffffffffffffffffffffffff1673ffffffffffffffffffffffffffffffffffffffff16815260200190815260200160002060009054906101000a900460ff16905092915050565b823373ffffffffffffffffffffffffffffffffffffffff166002600083815260200190815260200160002060010160009054906101000a900473ffffffffffffffffffffffffffffffffffffffff1673ffffffffffffffffffffffffffffffffffffffff1614610594576040517f08c379a000000000000000000000000000000000000000000000000000000000815260040161058b90611513565b60405180910390fd5b826002600086815260200190815260200160002060020190816105b7919061139f565b50816002600086815260200190815260200160002060030190816105db919061139f565b5050505050565b803373ffffffffffffffffffffffffffffffffffffffff166002600083815260200190815260200160002060010160009054906101000a900473ffffffffffffffffffffffffffffffffffffffff1673ffffffffffffffffffffffffffffffffffffffff1614610687576040517f08c379a000000000000000000000000000000000000000000000000000000000815260040161067e90611513565b60405180910390fd5b60006002600084815260200190815260200160002060060160006101000a81548160ff0219169083151502179055505050565b60006002600084815260200190815260200160002090508060060160009054906101000a900460ff16610722576040517f08c379a00000000000000000000000000000000000000000000000000000000081526004016107199061157f565b60405180910390fd5b806004015481600501541061076c576040517f08c379a0000000000000000000000000000000000000000000000000000000008152600401610763906115eb565b60405180910390fd5b8060070160003373ffffffffffffffffffffffffffffffffffffffff1673ffffffffffffffffffffffffffffffffffffffff16815260200190815260200160002060009054906101000a900460ff16156107fb576040517f08c379a00000000000000000000000000000000000000000000000000000000081526004016107f29061167d565b60405180910390fd5b60008054906101000a900473ffffffffffffffffffffffffffffffffffffffff1673ffffffffffffffffffffffffffffffffffffffff16638fd649a733846040518363ffffffff1660e01b815260040161085692919061169d565b602060405180830381865afa158015610873573d6000803e3d6000fd5b505050506040513d601f19601f8201168201806040525081019061089791906116f2565b6108d6576040517f08c379a00000000000000000000000000000000000000000000000000000000081526004016108cd9061176b565b60405180910390fd5b60018160070160003373ffffffffffffffffffffffffffffffffffffffff1673ffffffffffffffffffffffffffffffffffffffff16815260200190815260200160002060006101000a81548160ff021916908315150217905550806005016000815480929190610945906111b5565b91905055503373ffffffffffffffffffffffffffffffffffffffff167f6cd8594df6446610564bf1ea1e804402ea0006dc7b541d3a430d1ea0a62cffd4846040516109909190610d1e565b60405180910390a2505050565b60008054906101000a900473ffffffffffffffffffffffffffffffffffffffff1681565b6060806000806000806002600088815260200190815260200160002090508060020181600301826004015483600501548460060160009054906101000a900460ff16848054610a0f90611155565b80601f0160208091040260200160405190810160405280929190818152602001828054610a3b90611155565b8015610a885780601f10610a5d57610100808354040283529160200191610a88565b820191906000526020600020905b815481529060010190602001808311610a6b57829003601f168201915b50505050509450838054610a9b90611155565b80601f0160208091040260200160405190810160405280929190818152602001828054610ac790611155565b8015610b145780601f10610ae957610100808354040283529160200191610b14565b820191906000526020600020905b815481529060010190602001808311610af757829003601f168201915b50505050509350955095509550955095505091939590929450565b6000604051905090565b600080fd5b600080fd5b6000819050919050565b610b5681610b43565b8114610b6157600080fd5b50565b600081359050610b7381610b4d565b92915050565b600060208284031215610b8f57610b8e610b39565b5b6000610b9d84828501610b64565b91505092915050565b610baf81610b43565b82525050565b600073ffffffffffffffffffffffffffffffffffffffff82169050919050565b6000610be082610bb5565b9050919050565b610bf081610bd5565b82525050565b600081519050919050565b600082825260208201905092915050565b60005b83811015610c30578082015181840152602081019050610c15565b60008484015250505050565b6000601f19601f8301169050919050565b6000610c5882610bf6565b610c628185610c01565b9350610c72818560208601610c12565b610c7b81610c3c565b840191505092915050565b60008115159050919050565b610c9b81610c86565b82525050565b600060e082019050610cb6600083018a610ba6565b610cc36020830189610be7565b8181036040830152610cd58188610c4d565b90508181036060830152610ce98187610c4d565b9050610cf86080830186610ba6565b610d0560a0830185610ba6565b610d1260c0830184610c92565b98975050505050505050565b6000602082019050610d336000830184610ba6565b92915050565b600080fd5b600080fd5b7f4e487b7100000000000000000000000000000000000000000000000000000000600052604160045260246000fd5b610d7b82610c3c565b810181811067ffffffffffffffff82111715610d9a57610d99610d43565b5b80604052505050565b6000610dad610b2f565b9050610db98282610d72565b919050565b600067ffffffffffffffff821115610dd957610dd8610d43565b5b610de282610c3c565b9050602081019050919050565b82818337600083830152505050565b6000610e11610e0c84610dbe565b610da3565b905082815260208101848484011115610e2d57610e2c610d3e565b5b610e38848285610def565b509392505050565b600082601f830112610e5557610e54610d39565b5b8135610e65848260208601610dfe565b91505092915050565b600080600060608486031215610e8757610e86610b39565b5b600084013567ffffffffffffffff811115610ea557610ea4610b3e565b5b610eb186828701610e40565b935050602084013567ffffffffffffffff811115610ed257610ed1610b3e565b5b610ede86828701610e40565b9250506040610eef86828701610b64565b9150509250925092565b610f0281610bd5565b8114610f0d57600080fd5b50565b600081359050610f1f81610ef9565b92915050565b60008060408385031215610f3c57610f3b610b39565b5b6000610f4a85828601610b64565b9250506020610f5b85828601610f10565b9150509250929050565b6000602082019050610f7a6000830184610c92565b92915050565b600080600060608486031215610f9957610f98610b39565b5b6000610fa786828701610b64565b935050602084013567ffffffffffffffff811115610fc857610fc7610b3e565b5b610fd486828701610e40565b925050604084013567ffffffffffffffff811115610ff557610ff4610b3e565b5b61100186828701610e40565b9150509250925092565b6000806040838503121561102257611021610b39565b5b600061103085828601610b64565b925050602061104185828601610b64565b9150509250929050565b6000819050919050565b600061107061106b61106684610bb5565b61104b565b610bb5565b9050919050565b600061108282611055565b9050919050565b600061109482611077565b9050919050565b6110a481611089565b82525050565b60006020820190506110bf600083018461109b565b92915050565b600060a08201905081810360008301526110df8188610c4d565b905081810360208301526110f38187610c4d565b90506111026040830186610ba6565b61110f6060830185610ba6565b61111c6080830184610c92565b9695505050505050565b7f4e487b7100000000000000000000000000000000000000000000000000000000600052602260045260246000fd5b6000600282049050600182168061116d57607f821691505b6020821081036111805761117f611126565b5b50919050565b7f4e487b7100000000000000000000000000000000000000000000000000000000600052601160045260246000fd5b60006111c082610b43565b91507fffffffffffffffffffffffffffffffffffffffffffffffffffffffffffffffff82036111f2576111f1611186565b5b600182019050919050565b60008190508160005260206000209050919050565b60006020601f8301049050919050565b600082821b905092915050565b60006008830261125f7fffffffffffffffffffffffffffffffffffffffffffffffffffffffffffffffff82611222565b6112698683611222565b95508019841693508086168417925050509392505050565b600061129c61129761129284610b43565b61104b565b610b43565b9050919050565b6000819050919050565b6112b683611281565b6112ca6112c2826112a3565b84845461122f565b825550505050565b600090565b6112df6112d2565b6112ea8184846112ad565b505050565b5b8181101561130e576113036000826112d7565b6001810190506112f0565b5050565b601f82111561135357611324816111fd565b61132d84611212565b8101602085101561133c578190505b61135061134885611212565b8301826112ef565b50505b505050565b600082821c905092915050565b600061137660001984600802611358565b1980831691505092915050565b600061138f8383611365565b9150826002028217905092915050565b6113a882610bf6565b67ffffffffffffffff8111156113c1576113c0610d43565b5b6113cb8254611155565b6113d6828285611312565b600060209050601f83116001811461140957600084156113f7578287015190505b6114018582611383565b865550611469565b601f198416611417866111fd565b60005b8281101561143f5784890151825560018201915060208501945060208101905061141a565b8683101561145c5784890151611458601f891682611365565b8355505b6001600288020188555050505b505050505050565b60006040820190506114866000830185610ba6565b81810360208301526114988184610c4d565b90509392505050565b7f4f6e6c7920746865206576656e742063726561746f722063616e206d616e616760008201527f652074686973206576656e742e00000000000000000000000000000000000000602082015250565b60006114fd602d83610c01565b9150611508826114a1565b604082019050919050565b6000602082019050818103600083015261152c816114f0565b9050919050565b7f4576656e7420726567697374726174696f6e20697320636c6f7365642e000000600082015250565b6000611569601d83610c01565b915061157482611533565b602082019050919050565b600060208201905081810360008301526115988161155c565b9050919050565b7f4576656e742069732066756c6c2e000000000000000000000000000000000000600082015250565b60006115d5600e83610c01565b91506115e08261159f565b602082019050919050565b60006020820190508181036000830152611604816115c8565b9050919050565b7f596f75206861766520616c7265616479207265676973746572656420666f722060008201527f74686973206576656e742e000000000000000000000000000000000000000000602082015250565b6000611667602b83610c01565b91506116728261160b565b604082019050919050565b600060208201905081810360008301526116968161165a565b9050919050565b60006040820190506116b26000830185610be7565b6116bf6020830184610ba6565b9392505050565b6116cf81610c86565b81146116da57600080fd5b50565b6000815190506116ec816116c6565b92915050565b60006020828403121561170857611707610b39565b5b6000611716848285016116dd565b91505092915050565b7f596f7520646f206e6f74206f776e20746865207265717569726564204e46542e600082015250565b6000611755602083610c01565b91506117608261171f565b602082019050919050565b6000602082019050818103600083015261178481611748565b905091905056fea2646970667358221220f391d8e4fe4e1c252edf19e0ca943b33ca3d332ed6dda75031439b187368ff1064736f6c63430008180033",
  "linkReferences": {},
  "deployedLinkReferences": {}
}